{
  "contractName": "Lotto",
  "abi": [
    {
      "anonymous": false,
      "inputs": [
        {
          "indexed": true,
          "internalType": "address",
          "name": "tokenOwner",
          "type": "address"
        },
        {
          "indexed": true,
          "internalType": "address",
          "name": "spender",
          "type": "address"
        },
        {
          "indexed": false,
          "internalType": "uint256",
          "name": "tokens",
          "type": "uint256"
        }
      ],
      "name": "Approval",
      "type": "event"
    },
    {
      "anonymous": false,
      "inputs": [
        {
          "indexed": false,
          "internalType": "string",
          "name": "_eventName",
          "type": "string"
        },
        {
          "indexed": false,
          "internalType": "uint256",
          "name": "_value",
          "type": "uint256"
        }
      ],
      "name": "DoLog",
      "type": "event"
    },
    {
      "anonymous": false,
      "inputs": [
        {
          "indexed": false,
          "internalType": "string",
          "name": "_eventName",
          "type": "string"
        },
        {
          "indexed": false,
          "internalType": "bytes32",
          "name": "_value",
          "type": "bytes32"
        }
      ],
      "name": "DoLog",
      "type": "event"
    },
    {
      "anonymous": false,
      "inputs": [
        {
          "indexed": false,
          "internalType": "uint256",
          "name": "_value",
          "type": "uint256"
        }
      ],
      "name": "DoLog",
      "type": "event"
    },
    {
      "anonymous": false,
      "inputs": [
        {
          "indexed": true,
          "internalType": "address",
          "name": "_from",
          "type": "address"
        },
        {
          "indexed": false,
          "internalType": "uint256",
          "name": "_value",
          "type": "uint256"
        },
        {
          "indexed": false,
          "internalType": "uint256[]",
          "name": "_game",
          "type": "uint256[]"
        }
      ],
      "name": "OnDoGame",
      "type": "event"
    },
    {
      "anonymous": false,
      "inputs": [
        {
          "indexed": true,
          "internalType": "address",
          "name": "_from",
          "type": "address"
        },
        {
          "indexed": false,
          "internalType": "uint256",
          "name": "_value",
          "type": "uint256"
        }
      ],
      "name": "OnInvest",
      "type": "event"
    },
    {
      "anonymous": false,
      "inputs": [
        {
          "indexed": false,
          "internalType": "string",
          "name": "_eventName",
          "type": "string"
        },
        {
          "indexed": false,
          "internalType": "uint8[6]",
          "name": "_numberSort",
          "type": "uint8[6]"
        },
        {
          "indexed": false,
          "internalType": "uint256[]",
          "name": "_playedGame",
          "type": "uint256[]"
        },
        {
          "indexed": false,
          "internalType": "address",
          "name": "_from",
          "type": "address"
        },
        {
          "indexed": false,
          "internalType": "bool",
          "name": "_isVictory",
          "type": "bool"
        }
      ],
      "name": "SortGame",
      "type": "event"
    },
    {
      "anonymous": false,
      "inputs": [
        {
          "indexed": true,
          "internalType": "address",
          "name": "from",
          "type": "address"
        },
        {
          "indexed": true,
          "internalType": "address",
          "name": "to",
          "type": "address"
        },
        {
          "indexed": false,
          "internalType": "uint256",
          "name": "tokens",
          "type": "uint256"
        }
      ],
      "name": "Transfer",
      "type": "event"
    },
    {
      "constant": true,
      "inputs": [],
      "name": "decimals",
      "outputs": [
        {
          "internalType": "uint8",
          "name": "",
          "type": "uint8"
        }
      ],
      "payable": false,
      "stateMutability": "view",
      "type": "function"
    },
    {
      "constant": true,
      "inputs": [],
      "name": "name",
      "outputs": [
        {
          "internalType": "string",
          "name": "",
          "type": "string"
        }
      ],
      "payable": false,
      "stateMutability": "view",
      "type": "function"
    },
    {
      "constant": true,
      "inputs": [],
      "name": "symbol",
      "outputs": [
        {
          "internalType": "string",
          "name": "",
          "type": "string"
        }
      ],
      "payable": false,
      "stateMutability": "view",
      "type": "function"
    },
    {
      "constant": true,
      "inputs": [],
      "name": "totalSupply",
      "outputs": [
        {
          "internalType": "uint256",
          "name": "",
          "type": "uint256"
        }
      ],
      "payable": false,
      "stateMutability": "view",
      "type": "function"
    },
    {
      "constant": true,
      "inputs": [
        {
          "internalType": "address",
          "name": "tokenOwner",
          "type": "address"
        }
      ],
      "name": "balanceOf",
      "outputs": [
        {
          "internalType": "uint256",
          "name": "",
          "type": "uint256"
        }
      ],
      "payable": false,
      "stateMutability": "view",
      "type": "function"
    },
    {
      "constant": false,
      "inputs": [
        {
          "internalType": "address",
          "name": "receiver",
          "type": "address"
        },
        {
          "internalType": "uint256",
          "name": "numTokens",
          "type": "uint256"
        }
      ],
      "name": "transfer",
      "outputs": [
        {
          "internalType": "bool",
          "name": "",
          "type": "bool"
        }
      ],
      "payable": false,
      "stateMutability": "nonpayable",
      "type": "function"
    },
    {
      "constant": false,
      "inputs": [
        {
          "internalType": "address",
          "name": "delegate",
          "type": "address"
        },
        {
          "internalType": "uint256",
          "name": "numTokens",
          "type": "uint256"
        }
      ],
      "name": "approve",
      "outputs": [
        {
          "internalType": "bool",
          "name": "",
          "type": "bool"
        }
      ],
      "payable": false,
      "stateMutability": "nonpayable",
      "type": "function"
    },
    {
      "constant": true,
      "inputs": [
        {
          "internalType": "address",
          "name": "owner",
          "type": "address"
        },
        {
          "internalType": "address",
          "name": "delegate",
          "type": "address"
        }
      ],
      "name": "allowance",
      "outputs": [
        {
          "internalType": "uint256",
          "name": "",
          "type": "uint256"
        }
      ],
      "payable": false,
      "stateMutability": "view",
      "type": "function"
    },
    {
      "constant": false,
      "inputs": [
        {
          "internalType": "address",
          "name": "owner",
          "type": "address"
        },
        {
          "internalType": "address",
          "name": "buyer",
          "type": "address"
        },
        {
          "internalType": "uint256",
          "name": "numTokens",
          "type": "uint256"
        }
      ],
      "name": "transferFrom",
      "outputs": [
        {
          "internalType": "bool",
          "name": "",
          "type": "bool"
        }
      ],
      "payable": false,
      "stateMutability": "nonpayable",
      "type": "function"
    },
    {
      "constant": false,
      "inputs": [],
      "name": "invest",
      "outputs": [],
      "payable": true,
      "stateMutability": "payable",
      "type": "function"
    },
    {
      "constant": false,
      "inputs": [
        {
          "internalType": "uint256[]",
          "name": "game",
          "type": "uint256[]"
        }
      ],
      "name": "buyTicket",
      "outputs": [],
      "payable": true,
      "stateMutability": "payable",
      "type": "function"
    },
    {
      "constant": false,
      "inputs": [
        {
          "internalType": "uint256[]",
          "name": "game",
          "type": "uint256[]"
        }
      ],
      "name": "random",
      "outputs": [
        {
          "internalType": "uint8[6]",
          "name": "",
          "type": "uint8[6]"
        }
      ],
      "payable": true,
      "stateMutability": "payable",
      "type": "function"
    },
    {
      "constant": true,
      "inputs": [],
      "name": "getSidePot",
      "outputs": [
        {
          "internalType": "uint256",
          "name": "",
          "type": "uint256"
        }
      ],
      "payable": false,
      "stateMutability": "view",
      "type": "function"
    },
    {
      "constant": true,
      "inputs": [],
      "name": "getMainPot",
      "outputs": [
        {
          "internalType": "uint256",
          "name": "",
          "type": "uint256"
        }
      ],
      "payable": false,
      "stateMutability": "view",
      "type": "function"
    }
  ],
  "bytecode": "0x608060405266071afd498d00006001556000600255600060035560006004556000600555600060065569d3c21bcecceda100000060095534801561004257600080fd5b506118f8806100526000396000f3fe6080604052600436106100dd5760003560e01c806395d89b411161007f578063a9059cbb11610059578063a9059cbb146105a0578063dd62ed3e14610613578063e8b5e51f14610698578063f2643c3d146106a2576100dd565b806395d89b41146103f15780639a0fbe2d14610481578063a09e3367146104ac576100dd565b806323b872dd116100bb57806323b872dd14610210578063313ce567146102a357806370a08231146102d4578063716cac9614610339576100dd565b806306fdde03146100e2578063095ea7b31461017257806318160ddd146101e5575b600080fd5b3480156100ee57600080fd5b506100f76106cd565b6040518080602001828103825283818151815260200191508051906020019080838360005b8381101561013757808201518184015260208101905061011c565b50505050905090810190601f1680156101645780820380516001836020036101000a031916815260200191505b509250505060405180910390f35b34801561017e57600080fd5b506101cb6004803603604081101561019557600080fd5b81019080803573ffffffffffffffffffffffffffffffffffffffff16906020019092919080359060200190929190505050610706565b604051808215151515815260200191505060405180910390f35b3480156101f157600080fd5b506101fa6107f8565b6040518082815260200191505060405180910390f35b34801561021c57600080fd5b506102896004803603606081101561023357600080fd5b81019080803573ffffffffffffffffffffffffffffffffffffffff169060200190929190803573ffffffffffffffffffffffffffffffffffffffff16906020019092919080359060200190929190505050610802565b604051808215151515815260200191505060405180910390f35b3480156102af57600080fd5b506102b8610c0a565b604051808260ff1660ff16815260200191505060405180910390f35b3480156102e057600080fd5b50610323600480360360208110156102f757600080fd5b81019080803573ffffffffffffffffffffffffffffffffffffffff169060200190929190505050610c0f565b6040518082815260200191505060405180910390f35b6103ef6004803603602081101561034f57600080fd5b810190808035906020019064010000000081111561036c57600080fd5b82018360208201111561037e57600080fd5b803590602001918460208302840111640100000000831117156103a057600080fd5b919080806020026020016040519081016040528093929190818152602001838360200280828437600081840152601f19601f820116905080830192505050505050509192919290505050610c58565b005b3480156103fd57600080fd5b50610406610d85565b6040518080602001828103825283818151815260200191508051906020019080838360005b8381101561044657808201518184015260208101905061042b565b50505050905090810190601f1680156104735780820380516001836020036101000a031916815260200191505b509250505060405180910390f35b34801561048d57600080fd5b50610496610dbe565b6040518082815260200191505060405180910390f35b610562600480360360208110156104c257600080fd5b81019080803590602001906401000000008111156104df57600080fd5b8201836020820111156104f157600080fd5b8035906020019184602083028401116401000000008311171561051357600080fd5b919080806020026020016040519081016040528093929190818152602001838360200280828437600081840152601f19601f820116905080830192505050505050509192919290505050610dc8565b6040518082600660200280838360005b8381101561058d578082015181840152602081019050610572565b5050505090500191505060405180910390f35b3480156105ac57600080fd5b506105f9600480360360408110156105c357600080fd5b81019080803573ffffffffffffffffffffffffffffffffffffffff16906020019092919080359060200190929190505050611005565b604051808215151515815260200191505060405180910390f35b34801561061f57600080fd5b506106826004803603604081101561063657600080fd5b81019080803573ffffffffffffffffffffffffffffffffffffffff169060200190929190803573ffffffffffffffffffffffffffffffffffffffff169060200190929190505050611230565b6040518082815260200191505060405180910390f35b6106a06112b7565b005b3480156106ae57600080fd5b506106b761140c565b6040518082815260200191505060405180910390f35b6040518060400160405280600a81526020017f4c6f74746f546f6b656e0000000000000000000000000000000000000000000081525081565b600081600860003373ffffffffffffffffffffffffffffffffffffffff1673ffffffffffffffffffffffffffffffffffffffff16815260200190815260200160002060008573ffffffffffffffffffffffffffffffffffffffff1673ffffffffffffffffffffffffffffffffffffffff168152602001908152602001600020819055508273ffffffffffffffffffffffffffffffffffffffff163373ffffffffffffffffffffffffffffffffffffffff167f8c5be1e5ebec7d5bd14f71427d1e84f3dd0314c0f7b2291e5b200ac8c7c3b925846040518082815260200191505060405180910390a36001905092915050565b6000600954905090565b6000600760008573ffffffffffffffffffffffffffffffffffffffff1673ffffffffffffffffffffffffffffffffffffffff16815260200190815260200160002054821115610894576040517f08c379a0000000000000000000000000000000000000000000000000000000008152600401808060200182810382526000815260200160200191505060405180910390fd5b600860008573ffffffffffffffffffffffffffffffffffffffff1673ffffffffffffffffffffffffffffffffffffffff16815260200190815260200160002060003373ffffffffffffffffffffffffffffffffffffffff1673ffffffffffffffffffffffffffffffffffffffff16815260200190815260200160002054821115610961576040517f08c379a0000000000000000000000000000000000000000000000000000000008152600401808060200182810382526000815260200160200191505060405180910390fd5b6109b382600760008773ffffffffffffffffffffffffffffffffffffffff1673ffffffffffffffffffffffffffffffffffffffff1681526020019081526020016000205461141690919063ffffffff16565b600760008673ffffffffffffffffffffffffffffffffffffffff1673ffffffffffffffffffffffffffffffffffffffff16815260200190815260200160002081905550610a8582600860008773ffffffffffffffffffffffffffffffffffffffff1673ffffffffffffffffffffffffffffffffffffffff16815260200190815260200160002060003373ffffffffffffffffffffffffffffffffffffffff1673ffffffffffffffffffffffffffffffffffffffff1681526020019081526020016000205461141690919063ffffffff16565b600860008673ffffffffffffffffffffffffffffffffffffffff1673ffffffffffffffffffffffffffffffffffffffff16815260200190815260200160002060003373ffffffffffffffffffffffffffffffffffffffff1673ffffffffffffffffffffffffffffffffffffffff16815260200190815260200160002081905550610b5782600760008673ffffffffffffffffffffffffffffffffffffffff1673ffffffffffffffffffffffffffffffffffffffff1681526020019081526020016000205461146090919063ffffffff16565b600760008573ffffffffffffffffffffffffffffffffffffffff1673ffffffffffffffffffffffffffffffffffffffff168152602001908152602001600020819055508273ffffffffffffffffffffffffffffffffffffffff168473ffffffffffffffffffffffffffffffffffffffff167fddf252ad1be2c89b69c2b068fc378daa952ba7f163c4a11628f55a4df523b3ef846040518082815260200191505060405180910390a3600190509392505050565b601281565b6000600760008373ffffffffffffffffffffffffffffffffffffffff1673ffffffffffffffffffffffffffffffffffffffff168152602001908152602001600020549050919050565b7f842869854c7be4501bf8ead0a5922b24589fd5a01a0233edb38e175fc70e7d34610c8282610dc8565b82336000604051808060200186600660200280838360005b83811015610cb5578082015181840152602081019050610c9a565b50505050905001806020018573ffffffffffffffffffffffffffffffffffffffff1673ffffffffffffffffffffffffffffffffffffffff16815260200184151515158152602001838103835260098152602001807f536f72742047616d650000000000000000000000000000000000000000000000815250602001838103825286818151815260200191508051906020019060200280838360005b83811015610d6b578082015181840152602081019050610d50565b50505050905001965050505050505060405180910390a150565b6040518060400160405280600381526020017f4c5454000000000000000000000000000000000000000000000000000000000081525081565b6000600254905090565b610dd0611849565b610dd8611849565b6000809050600080600090506001610e7f603c888681518110610df757fe5b60200260200101513344600654604051602001808581526020018473ffffffffffffffffffffffffffffffffffffffff1673ffffffffffffffffffffffffffffffffffffffff1660601b81526014018381526020018281526020019450505050506040516020818303038152906040528051906020012060001c6114e890919063ffffffff16565b0191508184600060068110610e9057fe5b602002019060ff16908160ff16815250506006600081548092919060010191905055505b600084600560068110610ec357fe5b602002015160ff161415610ff9576001610f6c603c888681518110610ee457fe5b60200260200101513344600654604051602001808581526020018473ffffffffffffffffffffffffffffffffffffffff1673ffffffffffffffffffffffffffffffffffffffff1660601b81526014018381526020018281526020019450505050506040516020818303038152906040528051906020012060001c6114e890919063ffffffff16565b01915060008090505b6006811015610fb657848160068110610f8a57fe5b602002015160ff168360ff161415610fa55760009150610fb6565b600191508080600101915050610f75565b508015610fe25781848480600101955060068110610fd057fe5b602002019060ff16908160ff16815250505b600660008154809291906001019190505550610eb4565b83945050505050919050565b6000600760003373ffffffffffffffffffffffffffffffffffffffff1673ffffffffffffffffffffffffffffffffffffffff16815260200190815260200160002054821115611097576040517f08c379a0000000000000000000000000000000000000000000000000000000008152600401808060200182810382526000815260200160200191505060405180910390fd5b6110e982600760003373ffffffffffffffffffffffffffffffffffffffff1673ffffffffffffffffffffffffffffffffffffffff1681526020019081526020016000205461141690919063ffffffff16565b600760003373ffffffffffffffffffffffffffffffffffffffff1673ffffffffffffffffffffffffffffffffffffffff1681526020019081526020016000208190555061117e82600760008673ffffffffffffffffffffffffffffffffffffffff1673ffffffffffffffffffffffffffffffffffffffff1681526020019081526020016000205461146090919063ffffffff16565b600760008573ffffffffffffffffffffffffffffffffffffffff1673ffffffffffffffffffffffffffffffffffffffff168152602001908152602001600020819055508273ffffffffffffffffffffffffffffffffffffffff163373ffffffffffffffffffffffffffffffffffffffff167fddf252ad1be2c89b69c2b068fc378daa952ba7f163c4a11628f55a4df523b3ef846040518082815260200191505060405180910390a36001905092915050565b6000600860008473ffffffffffffffffffffffffffffffffffffffff1673ffffffffffffffffffffffffffffffffffffffff16815260200190815260200160002060008373ffffffffffffffffffffffffffffffffffffffff1673ffffffffffffffffffffffffffffffffffffffff16815260200190815260200160002054905092915050565b6112bf61186b565b60405180606001604052803373ffffffffffffffffffffffffffffffffffffffff1681526020014381526020013481525090506000819080600181540180825580915050906001820390600052602060002090600302016000909192909190915060008201518160000160006101000a81548173ffffffffffffffffffffffffffffffffffffffff021916908373ffffffffffffffffffffffffffffffffffffffff16021790555060208201518160010155604082015181600201555050506113b061139f6113906007600a611532565b3461157c90919063ffffffff16565b60025461146090919063ffffffff16565b6002819055506113e86113d76113c8601c6064611532565b3461157c90919063ffffffff16565b60035461146090919063ffffffff16565b6003819055506114033460055461146090919063ffffffff16565b60058190555050565b6000600354905090565b600061145883836040518060400160405280601e81526020017f536166654d6174683a207375627472616374696f6e206f766572666c6f770000815250611602565b905092915050565b6000808284019050838110156114de576040517f08c379a000000000000000000000000000000000000000000000000000000000815260040180806020018281038252601b8152602001807f536166654d6174683a206164646974696f6e206f766572666c6f77000000000081525060200191505060405180910390fd5b8091505092915050565b600061152a83836040518060400160405280601881526020017f536166654d6174683a206d6f64756c6f206279207a65726f00000000000000008152506116c2565b905092915050565b600061157483836040518060400160405280601a81526020017f536166654d6174683a206469766973696f6e206279207a65726f000000000000815250611783565b905092915050565b60008083141561158f57600090506115fc565b60008284029050828482816115a057fe5b04146115f7576040517f08c379a00000000000000000000000000000000000000000000000000000000081526004018080602001828103825260218152602001806118a36021913960400191505060405180910390fd5b809150505b92915050565b60008383111582906116af576040517f08c379a00000000000000000000000000000000000000000000000000000000081526004018080602001828103825283818151815260200191508051906020019080838360005b83811015611674578082015181840152602081019050611659565b50505050905090810190601f1680156116a15780820380516001836020036101000a031916815260200191505b509250505060405180910390fd5b5060008385039050809150509392505050565b600080831415829061176f576040517f08c379a00000000000000000000000000000000000000000000000000000000081526004018080602001828103825283818151815260200191508051906020019080838360005b83811015611734578082015181840152602081019050611719565b50505050905090810190601f1680156117615780820380516001836020036101000a031916815260200191505b509250505060405180910390fd5b5082848161177957fe5b0690509392505050565b6000808311829061182f576040517f08c379a00000000000000000000000000000000000000000000000000000000081526004018080602001828103825283818151815260200191508051906020019080838360005b838110156117f45780820151818401526020810190506117d9565b50505050905090810190601f1680156118215780820380516001836020036101000a031916815260200191505b509250505060405180910390fd5b50600083858161183b57fe5b049050809150509392505050565b6040518060c00160405280600690602082028038833980820191505090505090565b6040518060600160405280600073ffffffffffffffffffffffffffffffffffffffff1681526020016000815260200160008152509056fe536166654d6174683a206d756c7469706c69636174696f6e206f766572666c6f77a265627a7a72315820b2d376c76cf59f6474260b006e2bbf6b2195b169bedccdd4e4cbba8fadf77b0b64736f6c634300050c0032",
  "source": "pragma solidity >=0.4.3 <0.7.0;\r\n\r\nimport {Math} from \"./Math.sol\";\r\nimport {SafeMath} from \"./SafeMath.sol\";\r\n\r\ncontract Lotto {\r\n\r\n    using SafeMath for uint256;\r\n\r\n    struct Investor{\r\n        address add;\r\n        uint blockId;\r\n        uint amountInvest;\r\n    }\r\n\r\n    event OnInvest(address indexed _from,uint _value);\r\n    event OnDoGame(address indexed _from,uint _value,uint[] _game);\r\n    event DoLog(string _eventName,uint _value);\r\n    event DoLog(string _eventName,bytes32 _value);\r\n    event DoLog(uint _value);\r\n\r\n    event SortGame(string _eventName ,uint8[6] _numberSort, uint[] _playedGame, address _from, bool _isVictory);\r\n\r\n    Investor[] private investors;\r\n\r\n    uint betPrice = 2000000000000000;\r\n\r\n    uint mainJackPot = 0;\r\n    uint sideJackPot = 0;\r\n    uint investorPot = 0;\r\n    uint totalInvest = 0;\r\n    uint private nonce = 0;\r\n\r\n    string public constant name = \"LottoToken\";\r\n    string public constant symbol = \"LTT\";\r\n    uint8 public constant decimals = 18;\r\n\r\n\r\n    event Approval(address indexed tokenOwner, address indexed spender, uint tokens);\r\n    event Transfer(address indexed from, address indexed to, uint tokens);\r\n\r\n\r\n    mapping(address => uint256) balances;\r\n\r\n    mapping(address => mapping (address => uint256)) allowed;\r\n\r\n    uint256 totalSupply_ = 1000000000000000000000000;\r\n\r\n     function totalSupply() public view returns (uint256) {\r\n\treturn totalSupply_;\r\n    }\r\n\r\n    function balanceOf(address tokenOwner) public view returns (uint) {\r\n        return balances[tokenOwner];\r\n    }\r\n\r\n    function transfer(address receiver, uint numTokens) public returns (bool) {\r\n        require(numTokens <= balances[msg.sender],\"\");\r\n        balances[msg.sender] = balances[msg.sender].sub(numTokens);\r\n        balances[receiver] = balances[receiver].add(numTokens);\r\n        emit Transfer(msg.sender, receiver, numTokens);\r\n        return true;\r\n    }\r\n\r\n    function approve(address delegate, uint numTokens) public returns (bool) {\r\n        allowed[msg.sender][delegate] = numTokens;\r\n        emit Approval(msg.sender, delegate, numTokens);\r\n        return true;\r\n    }\r\n\r\n    function allowance(address owner, address delegate) public view returns (uint) {\r\n        return allowed[owner][delegate];\r\n    }\r\n\r\n    function transferFrom(address owner, address buyer, uint numTokens) public returns (bool) {\r\n        require(numTokens <= balances[owner],\"\");\r\n        require(numTokens <= allowed[owner][msg.sender],\"\");\r\n\r\n        balances[owner] = balances[owner].sub(numTokens);\r\n        allowed[owner][msg.sender] = allowed[owner][msg.sender].sub(numTokens);\r\n        balances[buyer] = balances[buyer].add(numTokens);\r\n        emit Transfer(owner, buyer, numTokens);\r\n        return true;\r\n    }\r\n\r\n    function invest()public payable {\r\n        Investor memory investor = Investor(msg.sender,block.number,msg.value);\r\n        investors.push(investor);\r\n\r\n        mainJackPot = mainJackPot.add(msg.value.mul(SafeMath.div(7,10)));\r\n        sideJackPot = sideJackPot.add(msg.value.mul(SafeMath.div(28,100)));\r\n        \r\n        totalInvest = totalInvest.add(msg.value);\r\n    }\r\n\r\n    function buyTicket(uint[] memory game) public payable{\r\n        // require(definePrice(Math.combinationGame(game)) == msg.value,\"The bet should be equal a (games * inital bet)\");\r\n\r\n        // mainJackPot = mainJackPot.add(msg.value.mul(SafeMath.div(7,10)));\r\n        // sideJackPot = sideJackPot.add(msg.value.mul(SafeMath.div(28,100)));\r\n        \r\n        // emit DoLog(\"Amount\",msg.value);\r\n    \t// emit DoLog(\"Calculate\",msg.value.mul(7));\r\n        emit SortGame(\"Sort Game\",random(game),game,msg.sender,false);\r\n        \r\n        // investorPot = investorPot.add(msg.value.mul(SafeMath.div(2,100)));\r\n\r\n        \r\n\r\n        // address payable mainJackPotWallet = address(0x33eD7dAc1F6F902Ea85f003fCB7b32B592C8cA03);\r\n        // address payable sideJackPotWallet = address(0xb8CBE8a50cDC8E9BCf1F7a2Ba39EDb662d6750B7);\r\n        // address payable developersJackPotWallet = address(0x45bBD13B4BB7d2EE2a81E33F2BC48b121c6e9dFe);\r\n\r\n        // developersJackPotWallet.transfer(msg.value * 2 / 100);\r\n        \r\n        // mainJackPotWallet.transfer(msg.value * 7/10);\r\n        // sideJackPotWallet.transfer(msg.value * 28 / 100);\r\n        // developersJackPotWallet.transfer(msg.value * 2 / 100);\r\n\r\n    }\r\n\r\n    // function withdrawInvest()private payable{\r\n\r\n    // }\r\n    function random(uint[] memory game) public payable returns (uint8[6] memory) {\r\n        uint8[6] memory randomNumbers;\r\n        uint position = 0;\r\n        uint8 sortNumber;\r\n        bool hasSimilarNumber = false;\r\n\r\n        sortNumber = uint8(uint256(keccak256(abi.encodePacked(game[position],msg.sender,block.difficulty,nonce))).mod(60)+1);\r\n        randomNumbers[0] = sortNumber;\r\n        nonce++;\r\n\r\n        while(randomNumbers[5] == 0){\r\n            sortNumber = uint8(uint256(keccak256(abi.encodePacked(game[position],msg.sender,block.difficulty,nonce))).mod(60)+1);\r\n            for(uint i = 0 ; i < randomNumbers.length ; i++){\r\n                if(sortNumber == randomNumbers[i]){\r\n                    hasSimilarNumber = false;\r\n                    break;\r\n                }\r\n                hasSimilarNumber = true;\r\n            }\r\n            if(hasSimilarNumber){\r\n                randomNumbers[position++] = sortNumber;\r\n            }\r\n            nonce++;\r\n        }\r\n\r\n\r\n        return randomNumbers;\r\n    }\r\n\r\n    function getSidePot() public view returns(uint){\r\n        return sideJackPot;\r\n    }\r\n\r\n    function getMainPot() public view returns(uint){\r\n        return mainJackPot;\r\n    }\r\n\r\n    function definePrice(uint games) private view returns(uint){\r\n        return games.mul(betPrice);\r\n    }\r\n\r\n}",
  "sourcePath": "C:/Users/S0MK3R/eth/PetShop/contracts/Lotto.sol",
  "compiler": {
    "name": "solc",
    "version": "0.5.12+commit.7709ece9.Emscripten.clang"
  },
  "schemaVersion": "3.0.20",
  "updatedAt": "2020-04-01T06:00:54.861Z",
  "networkType": "ethereum",
  "devdoc": {
    "methods": {}
  },
  "userdoc": {
    "methods": {}
  }
}